{
  "contractName": "MappingAddressConnection",
  "abi": [
    {
      "inputs": [],
      "payable": false,
      "stateMutability": "nonpayable",
      "type": "constructor"
    },
    {
      "anonymous": false,
      "inputs": [
        {
          "indexed": false,
          "internalType": "address",
          "name": "_from",
          "type": "address"
        },
        {
          "indexed": false,
          "internalType": "address",
          "name": "_to",
          "type": "address"
        },
        {
          "indexed": false,
          "internalType": "bool",
          "name": "_status",
          "type": "bool"
        }
      ],
      "name": "gridconnectionEvent",
      "type": "event"
    },
    {
      "constant": true,
      "inputs": [
        {
          "internalType": "address",
          "name": "",
          "type": "address"
        },
        {
          "internalType": "address",
          "name": "",
          "type": "address"
        }
      ],
      "name": "connections",
      "outputs": [
        {
          "internalType": "bool",
          "name": "",
          "type": "bool"
        }
      ],
      "payable": false,
      "stateMutability": "view",
      "type": "function"
    },
    {
      "constant": false,
      "inputs": [
        {
          "internalType": "address",
          "name": "_from",
          "type": "address"
        },
        {
          "internalType": "address",
          "name": "_to",
          "type": "address"
        }
      ],
      "name": "enableConnections",
      "outputs": [],
      "payable": false,
      "stateMutability": "nonpayable",
      "type": "function"
    },
    {
      "constant": false,
      "inputs": [
        {
          "internalType": "address",
          "name": "_from",
          "type": "address"
        },
        {
          "internalType": "address",
          "name": "_to",
          "type": "address"
        }
      ],
      "name": "disableConnections",
      "outputs": [],
      "payable": false,
      "stateMutability": "nonpayable",
      "type": "function"
    }
  ],
  "bytecode": "0x608060405234801561001057600080fd5b50336000806101000a81548173ffffffffffffffffffffffffffffffffffffffff021916908373ffffffffffffffffffffffffffffffffffffffff160217905550610866806100606000396000f3fe608060405234801561001057600080fd5b50600436106100415760003560e01c806310638555146100465780636717e68f146100aa578063883aca1e1461010e575b600080fd5b6100a86004803603604081101561005c57600080fd5b81019080803573ffffffffffffffffffffffffffffffffffffffff169060200190929190803573ffffffffffffffffffffffffffffffffffffffff16906020019092919050505061018a565b005b61010c600480360360408110156100c057600080fd5b81019080803573ffffffffffffffffffffffffffffffffffffffff169060200190929190803573ffffffffffffffffffffffffffffffffffffffff169060200190929190505050610453565b005b6101706004803603604081101561012457600080fd5b81019080803573ffffffffffffffffffffffffffffffffffffffff169060200190929190803573ffffffffffffffffffffffffffffffffffffffff1690602001909291905050506107dd565b604051808215151515815260200191505060405180910390f35b81818073ffffffffffffffffffffffffffffffffffffffff168273ffffffffffffffffffffffffffffffffffffffff161415610211576040517f08c379a000000000000000000000000000000000000000000000000000000000815260040180806020018281038252602581526020018061080d6025913960400191505060405180910390fd5b60011515600160008673ffffffffffffffffffffffffffffffffffffffff1673ffffffffffffffffffffffffffffffffffffffff16815260200190815260200160002060008573ffffffffffffffffffffffffffffffffffffffff1673ffffffffffffffffffffffffffffffffffffffff16815260200190815260200160002060009054906101000a900460ff16151514610314576040517f08c379a000000000000000000000000000000000000000000000000000000000815260040180806020018281038252601b8152602001807f636f6e6e656374696f6e73206e6f742065737461626c6973686564000000000081525060200191505060405180910390fd5b6000600160008673ffffffffffffffffffffffffffffffffffffffff1673ffffffffffffffffffffffffffffffffffffffff16815260200190815260200160002060008573ffffffffffffffffffffffffffffffffffffffff1673ffffffffffffffffffffffffffffffffffffffff16815260200190815260200160002060006101000a81548160ff0219169083151502179055507f92976566e92691cacfafd8b06f468554fea805471d46a159c378780fd472cbac84846001604051808473ffffffffffffffffffffffffffffffffffffffff1673ffffffffffffffffffffffffffffffffffffffff1681526020018373ffffffffffffffffffffffffffffffffffffffff1673ffffffffffffffffffffffffffffffffffffffff16815260200182151515158152602001935050505060405180910390a150505050565b6000809054906101000a900473ffffffffffffffffffffffffffffffffffffffff1673ffffffffffffffffffffffffffffffffffffffff163373ffffffffffffffffffffffffffffffffffffffff1614610515576040517f08c379a000000000000000000000000000000000000000000000000000000000815260040180806020018281038252601b8152602001807f596f752063616e2774204465706c6f792c20534f52525921212121000000000081525060200191505060405180910390fd5b81818073ffffffffffffffffffffffffffffffffffffffff168273ffffffffffffffffffffffffffffffffffffffff16141561059c576040517f08c379a000000000000000000000000000000000000000000000000000000000815260040180806020018281038252602581526020018061080d6025913960400191505060405180910390fd5b60001515600160008673ffffffffffffffffffffffffffffffffffffffff1673ffffffffffffffffffffffffffffffffffffffff16815260200190815260200160002060008573ffffffffffffffffffffffffffffffffffffffff1673ffffffffffffffffffffffffffffffffffffffff16815260200190815260200160002060009054906101000a900460ff1615151461069f576040517f08c379a000000000000000000000000000000000000000000000000000000000815260040180806020018281038252601f8152602001807f636f6e6e656374696f6e7320616c72656164792065737461626c69736865640081525060200191505060405180910390fd5b60018060008673ffffffffffffffffffffffffffffffffffffffff1673ffffffffffffffffffffffffffffffffffffffff16815260200190815260200160002060008573ffffffffffffffffffffffffffffffffffffffff1673ffffffffffffffffffffffffffffffffffffffff16815260200190815260200160002060006101000a81548160ff0219169083151502179055507f92976566e92691cacfafd8b06f468554fea805471d46a159c378780fd472cbac84846001604051808473ffffffffffffffffffffffffffffffffffffffff1673ffffffffffffffffffffffffffffffffffffffff1681526020018373ffffffffffffffffffffffffffffffffffffffff1673ffffffffffffffffffffffffffffffffffffffff16815260200182151515158152602001935050505060405180910390a150505050565b60016020528160005260406000206020528060005260406000206000915091509054906101000a900460ff168156fe43616e27742045737461626c69736820636f6e6e656374696f6e7320776974682073656c66a265627a7a7231582027aef2bce31ea1cbb7a3a3e2843161c61cb1a48ec77b617366fc70a85b437ff664736f6c63430005100032",
  "source": "// SPDX-License-Identifier: MIT\npragma solidity <0.6.4;\n\ncontract MappingAddressConnection {\n\n    address _owner;\n\n    //establishing Owner of smartContract\n    constructor() public{\n        _owner = msg.sender;\n    }\n\n    event gridconnectionEvent(\n        address _from,\n        address _to,\n        bool _status);\n\n    mapping(address => mapping(address => bool)) public connections;\n\n    //establishing connections:\n    function enableConnections(address _from, address _to) public onlyOwner NotSelf(_from,  _to){\n        // checking that connection not already true\n        require(connections[_from][_to] == false, 'connections already established');\n        connections[_from][_to] = true;\n\n        emit gridconnectionEvent(_from, _to, true);\n    }\n\n    //Disableling connections:\n    function disableConnections(address _from, address _to) public NotSelf(_from,  _to){\n        // checking that connection not already false\n        require(connections[_from][_to] == true, 'connections not established');\n        connections[_from][_to] = false;\n\n        emit gridconnectionEvent(_from, _to, true);\n    }\n\n    modifier onlyOwner{\n        require(msg.sender == _owner,\"You can't Deploy, SORRY!!!!\");\n        _;\n    }\n\n    modifier NotSelf(address _from, address _to) {\n        require(_from != _to, \"Can't Establish connections with self\");\n        _;\n    }\n}\n",
  "sourcePath": "/Users/yashmadhwal/Documents/Yash Madhwal/Ongoing (Reseach)/BlockchainGRID/Truffle_GRID/contracts/GridConnections.sol",
  "compiler": {
    "name": "solc",
    "version": "0.5.16+commit.9c3226ce.Emscripten.clang"
  },
  "schemaVersion": "3.3.3",
  "updatedAt": "2021-02-19T14:15:16.142Z",
  "networkType": "ethereum",
  "devdoc": {
    "methods": {}
  },
  "userdoc": {
    "methods": {}
  }
}