{
  "contractName": "passingArbitraryArguments",
  "abi": [
    {
      "inputs": [
        {
          "internalType": "address",
          "name": "addr",
          "type": "address"
        }
      ],
      "payable": false,
      "stateMutability": "nonpayable",
      "type": "constructor"
    },
    {
      "anonymous": false,
      "inputs": [
        {
          "indexed": true,
          "internalType": "address",
          "name": "_from",
          "type": "address"
        },
        {
          "indexed": true,
          "internalType": "address",
          "name": "to",
          "type": "address"
        },
        {
          "indexed": true,
          "internalType": "uint256",
          "name": "iteration",
          "type": "uint256"
        },
        {
          "indexed": false,
          "internalType": "string[]",
          "name": "amount",
          "type": "string[]"
        }
      ],
      "name": "NewTrade",
      "type": "event"
    },
    {
      "constant": false,
      "inputs": [
        {
          "internalType": "address",
          "name": "_sender",
          "type": "address"
        },
        {
          "internalType": "address",
          "name": "_to",
          "type": "address"
        },
        {
          "internalType": "uint256",
          "name": "_iteration",
          "type": "uint256"
        },
        {
          "internalType": "string[]",
          "name": "_value",
          "type": "string[]"
        }
      ],
      "name": "passingValues",
      "outputs": [],
      "payable": false,
      "stateMutability": "nonpayable",
      "type": "function"
    },
    {
      "constant": true,
      "inputs": [
        {
          "internalType": "address",
          "name": "_sender",
          "type": "address"
        },
        {
          "internalType": "address",
          "name": "_to",
          "type": "address"
        }
      ],
      "name": "checkingstate",
      "outputs": [
        {
          "internalType": "bool",
          "name": "",
          "type": "bool"
        }
      ],
      "payable": false,
      "stateMutability": "view",
      "type": "function"
    }
  ],
  "bytecode": "0x608060405234801561001057600080fd5b506040516109393803806109398339818101604052610032919081019061008d565b806000806101000a81548173ffffffffffffffffffffffffffffffffffffffff021916908373ffffffffffffffffffffffffffffffffffffffff160217905550506100ff565b600081519050610087816100e8565b92915050565b60006020828403121561009f57600080fd5b60006100ad84828501610078565b91505092915050565b60006100c1826100c8565b9050919050565b600073ffffffffffffffffffffffffffffffffffffffff82169050919050565b6100f1816100b6565b81146100fc57600080fd5b50565b61082b8061010e6000396000f3fe608060405234801561001057600080fd5b50600436106100365760003560e01c80638ea4d95b1461003b578063c5da1ae214610057575b600080fd5b610055600480360361005091908101906103d7565b610087565b005b610071600480360361006c919081019061039b565b6101de565b60405161007e91906105e6565b60405180910390f35b6000809054906101000a900473ffffffffffffffffffffffffffffffffffffffff1673ffffffffffffffffffffffffffffffffffffffff1663883aca1e85856040518363ffffffff1660e01b81526004016100e392919061059b565b60206040518083038186803b1580156100fb57600080fd5b505afa15801561010f573d6000803e3d6000fd5b505050506040513d601f19601f820116820180604052506101339190810190610452565b610172576040517f08c379a000000000000000000000000000000000000000000000000000000000815260040161016990610601565b60405180910390fd5b818373ffffffffffffffffffffffffffffffffffffffff168573ffffffffffffffffffffffffffffffffffffffff167fd8c9df0ce139ab347e1d6fb9a4f8f664ce3078e38223e24a80d21aa92ba48898846040516101d091906105c4565b60405180910390a450505050565b60008060009054906101000a900473ffffffffffffffffffffffffffffffffffffffff1673ffffffffffffffffffffffffffffffffffffffff1663883aca1e84846040518363ffffffff1660e01b815260040161023c92919061059b565b60206040518083038186803b15801561025457600080fd5b505afa158015610268573d6000803e3d6000fd5b505050506040513d601f19601f8201168201806040525061028c9190810190610452565b905092915050565b6000813590506102a3816107a3565b92915050565b600082601f8301126102ba57600080fd5b81356102cd6102c88261064e565b610621565b9150818183526020840193506020810190508360005b8381101561031357813586016102f98882610332565b8452602084019350602083019250506001810190506102e3565b5050505092915050565b60008151905061032c816107ba565b92915050565b600082601f83011261034357600080fd5b813561035661035182610676565b610621565b9150808252602083016020830185838301111561037257600080fd5b61037d838284610750565b50505092915050565b600081359050610395816107d1565b92915050565b600080604083850312156103ae57600080fd5b60006103bc85828601610294565b92505060206103cd85828601610294565b9150509250929050565b600080600080608085870312156103ed57600080fd5b60006103fb87828801610294565b945050602061040c87828801610294565b935050604061041d87828801610386565b925050606085013567ffffffffffffffff81111561043a57600080fd5b610446878288016102a9565b91505092959194509250565b60006020828403121561046457600080fd5b60006104728482850161031d565b91505092915050565b60006104878383610522565b905092915050565b61049881610708565b82525050565b60006104a9826106b2565b6104b381856106d5565b9350836020820285016104c5856106a2565b8060005b8581101561050157848403895281516104e2858261047b565b94506104ed836106c8565b925060208a019950506001810190506104c9565b50829750879550505050505092915050565b61051c8161071a565b82525050565b600061052d826106bd565b61053781856106e6565b935061054781856020860161075f565b61055081610792565b840191505092915050565b6000610568601a836106f7565b91507f436f6e6e656374696f6e204e6f742045737461626c69736865640000000000006000830152602082019050919050565b60006040820190506105b0600083018561048f565b6105bd602083018461048f565b9392505050565b600060208201905081810360008301526105de818461049e565b905092915050565b60006020820190506105fb6000830184610513565b92915050565b6000602082019050818103600083015261061a8161055b565b9050919050565b6000604051905081810181811067ffffffffffffffff8211171561064457600080fd5b8060405250919050565b600067ffffffffffffffff82111561066557600080fd5b602082029050602081019050919050565b600067ffffffffffffffff82111561068d57600080fd5b601f19601f8301169050602081019050919050565b6000819050602082019050919050565b600081519050919050565b600081519050919050565b6000602082019050919050565b600082825260208201905092915050565b600082825260208201905092915050565b600082825260208201905092915050565b600061071382610726565b9050919050565b60008115159050919050565b600073ffffffffffffffffffffffffffffffffffffffff82169050919050565b6000819050919050565b82818337600083830152505050565b60005b8381101561077d578082015181840152602081019050610762565b8381111561078c576000848401525b50505050565b6000601f19601f8301169050919050565b6107ac81610708565b81146107b757600080fd5b50565b6107c38161071a565b81146107ce57600080fd5b50565b6107da81610746565b81146107e557600080fd5b5056fea365627a7a72315820a9c880fb974a65072f69bd36ff4b9ff35d53eef8b2840da3c30639329b8077796c6578706572696d656e74616cf564736f6c63430005100040",
  "source": "pragma solidity <0.6.5;\npragma experimental ABIEncoderV2;\n\nimport './GridConnections.sol';\n\n\n\ncontract passingArbitraryArguments {\n\n    MappingAddressConnection maps;\n\n    event NewTrade(\n        address indexed _from,\n        address indexed to,\n        uint indexed iteration,\n        string[] amount\n        );\n\n    constructor(address addr) public {\n        maps = MappingAddressConnection(addr);\n    }\n\n    function passingValues(address _sender, address _to, uint _iteration, string[] memory _value) public {\n        require(maps.connections(_sender,_to),\"Connection Not Established\");\n          emit NewTrade(_sender, _to, _iteration, _value);\n    }\n\n    function checkingstate(address _sender, address _to) view public returns(bool){\n       return maps.connections(_sender,_to);\n    }\n\n}\n",
  "sourcePath": "/Users/yashmadhwal/Documents/Yash Madhwal/Conferences_and_Projects_Old/BlockchainGRID/Truffle_GRID/contracts/GRIDdataCommunication.sol",
  "compiler": {
    "name": "solc",
    "version": "0.5.16+commit.9c3226ce.Emscripten.clang"
  },
  "schemaVersion": "3.3.4",
  "updatedAt": "2021-06-18T12:24:53.343Z",
  "networkType": "ethereum",
  "devdoc": {
    "methods": {}
  },
  "userdoc": {
    "methods": {}
  }
}